:020000040800F2
:10000000680C00200D0200089D070008CF060008BC
:100010009907000849050008331300080000000094
:10002000000000000000000000000000850D000836
:100030004D05000800000000350C0008E50E000822
:1000400027020008270200082702000827020008EC
:1000500027020008270200082702000827020008DC
:1000600027020008270200082702000827020008CC
:1000700027020008270200082702000827020008BC
:1000800027020008270200082702000827020008AC
:10009000270200082702000827020008270200089C
:1000A000270200082702000827020008270200088C
:1000B000270200082702000827020008270200087C
:1000C000270200082702000827020008270200086C
:1000D0002702000811110008270200082702000863
:1000E000270200082702000827020008270200084C
:1000F000270200082702000827020008270200083C
:10010000270200082702000827020008270200082B
:10011000270200082702000827020008270200081B
:10012000270200082702000827020008270200080B
:1001300000F002F800F05AF80AA090E8000C82449F
:100140008344AAF10107DA4501D100F04FF8AFF27C
:10015000090EBAE80F0013F0010F18BFFB1A43F0A5
:1001600001031847F4220000142300000A444FF052
:10017000000C10F8013B13F0070408BF10F8014B06
:100180001D1108BF10F8015B641E05D010F8016B4B
:10019000641E01F8016BF9D113F0080F1EBF10F8AF
:1001A000014BAD1C0C1B09D16D1E58BF01F801CBD2
:1001B000FAD505E014F8016B01F8016B6D1EF9D555
:1001C0009142D6D37047000000230024002500266A
:1001D000103A28BF78C1FBD8520728BF30C148BFAA
:1001E0000B6070471FB51FBD10B510BD00F031F892
:1001F0001146FFF7F7FF01F03FF900F04FF803B4A5
:10020000FFF7F2FF03BC01F0EDF80000094880475A
:1002100009480047FEE7FEE7FEE7FEE7FEE7FEE7E8
:10022000FEE7FEE7FEE7FEE704480549054A064B00
:1002300070470000E90E0008310100086806002040
:10024000680C00206808002068080020704770478C
:100250007047754600F02CF8AE46050069465346D7
:1002600020F00700854618B020B5FFF7DDFFBDE898
:1002700020404FF000064FF000074FF000084FF00D
:10028000000B21F00701AC46ACE8C009ACE8C0099E
:10029000ACE8C009ACE8C0098D46704710B504460B
:1002A000AFF300802046BDE81040FFF7A8BF000074
:1002B000004870470406002021B1826842F0010224
:1002C000826003E0826822F00102826070470000D1
:1002D00010B504461248844208D10121401500F0AF
:1002E000D7FC0021601500F0D3FC17E00D488442D4
:1002F00008D10121001500F0CBFC0021201500F0F1
:10030000C7FC0BE00848844208D10121C80300F073
:10031000BFFC00214FF4004000F0BAFC10BD00000B
:100320000024014000280140003C0140014600201B
:100330008A6802F004020AB1012000E00020704740
:100340000146C86C80B270470246002013680B401B
:100350000BB1012000E000207047014600208A68B0
:1003600002F008020AB1012000E0002070470000FE
:1003700030B502460020002350680F4C20400D7914
:100380000C6844EA05242043506090680B4C2040E0
:10039000D1E902542C434D7944EA4504204390604E
:1003A000D06A20F470000C7C641EE4B2234340EA5F
:1003B0000350D06230BD0000FFFEF0FFFDF7F1FFFB
:1003C000F0B504460D4600200021092D11DDE0683E
:1003D000A5F10A0606EB4607072606FA07F1884349
:1003E000A5F10A0606EB460603FA06F10843E060AB
:1003F0000CE0206905EB4507072606FA07F188435C
:1004000005EB450603FA06F108432061072A0FDAD7
:10041000606B561E06EB86071F2606FA07F1884317
:10042000561E06EB860605FA06F10843606322E0D5
:100430000D2A0FDA206BD61F06EB86071F2606FA59
:1004400007F18843D61F06EB860605FA06F1084336
:10045000206310E0E06AA2F10D0606EB86071F2676
:1004600006FA07F18843A2F10D0606EB860605FAA7
:1004700006F10843E062F0BD816841F00801816047
:10048000704721B1826842F4A002826003E0826872
:1004900022F4A00282607047816841F0040181600B
:1004A0007047000000B587B001214FF4017000F0E3
:1004B000DFFB4FF4004000F0BFFB2020ADF804004C
:1004C00000208DF8070001A91D4800F040F81D48E4
:1004D000FFF7FEFE0020029001208DF80C008DF841
:1004E0000D004FF4602004900020059001208DF84D
:1004F000180002A91348FFF73BFF05230122194604
:100500001048FFF75DFF01210E48FFF7D5FE0D48AB
:10051000FFF7B2FF00BF0B48FFF71FFF0028FAD11B
:100520000848FFF7B9FF00BF0648FFF7FFFE0028A5
:10053000FAD101210348FFF7A4FF07B000BD000076
:10054000000801400024014000BFFEE770472DE98C
:10055000F041024600250026002000230024002749
:1005600091F803C00CF00F0591F803C00CF0100CCB
:10057000BCF1000F03D091F802C04CEA050591F8D8
:1005800000C0BCF1000F31D0146800202BE04FF008
:10059000010C0CFA00F3B1F800C00CEA03069E420D
:1005A00020D183004FF00F0C0CFA03F7BC4305FA7F
:1005B00003FC4CEA040491F803C0BCF1280F06D1F7
:1005C0004FF0010C0CFA00FCC2F814C00AE091F8DC
:1005D00003C0BCF1480F05D14FF0010C0CFA00FC30
:1005E000C2F810C0401C0828D1D31460B1F800C074
:1005F000BCF1FF0F34DD546800202EE000F1080C40
:100600004FF0010808FA0CF3B1F800C00CEA030639
:100610009E4221D183004FF00F0C0CFA03F7BC432C
:1006200005FA03FC4CEA040491F803C0BCF1280F5E
:1006300005D100F1080C08FA0CF8C2F8148091F802
:1006400003C0BCF1480F07D100F1080C4FF00108BE
:1006500008FA0CF8C2F81080401C0828CED3546069
:10066000BDE8F081416170470161704710B50446F3
:100670000723012221460948FFF7A2FE012107486E
:10068000FFF7FFFE00BF02210448FFF75DFE0028D0
:10069000F9D00248FFF754FE10BD000000240140CD
:1006A0002DE9F04107460C460025002608E03846B3
:1006B000FFF7DCFF0544012000F0B8FE701CC6B255
:1006C000A642F4DBB5FBF4F080B2BDE8F08100BFD8
:1006D000FEE7000010B540210748FFF7C5FF802165
:1006E0000548FFF7C1FF80210348FFF7BBFF40210A
:1006F0000148FFF7B7FF10BD000C014010B54021C5
:100700000548FFF7B1FF80210348FFF7ABFF8021C9
:100710000148FFF7A9FF10BD000C014010B54021B2
:100720000348FFF7A1FF40210148FFF79BFF10BDE1
:10073000000C014008B50121082000F099FA2020A2
:10074000ADF8000010208DF8030003208DF80200A2
:1007500069460F48FFF7FBFE20210D48FFF784FF95
:100760000121402000F084FA4FF47260ADF80000DF
:1007700010208DF8030003208DF80200694605481B
:10078000FFF7E5FE4FF472610248FFF76DFF08BD09
:10079000000C01400018014000BFFEE77047000058
:1007A00070B5002100230F22C47804B3154C2468CF
:1007B00004F4E064C4F5E064210AC1F10403CA4012
:1007C000447804FA03F184781440214309010E4C63
:1007D0000678A155047804F01F050124AC40057883
:1007E0006D11AD0005F1E025C5F8004109E0047880
:1007F00004F01F050124AC40044D0678761145F83D
:10080000264070BD0CED00E000E400E080E100E077
:1008100070B5002419E004F1B001C8B2002100F065
:10082000FDF90021084600F0F9F90021102000F040
:10083000F5F9002505E00121002000F0EFF9681C22
:10084000C5B2802DF7DB601CC4B2082CE3DB70BDA1
:1008500008B50121082000F00BFAC020ADF8000017
:1008600010208DF8030003208DF8020069463C48F3
:10087000FFF76DFEC0213A48FFF7F6FE4FF44870CF
:1008800000F0D4FD0021AE2000F0C8F90021084698
:1008900000F0C4F90021102000F0C0F90021402030
:1008A00000F0BCF90021B02000F0B8F9002181204F
:1008B00000F0B4F90021FF2000F0B0F90021A120E0
:1008C00000F0ACF90021A62000F0A8F90021A82032
:1008D00000F0A4F900213F2000F0A0F90021C82079
:1008E00000F09CF90021D32000F098F9002108467F
:1008F00000F094F90021D52000F090F9002180202B
:1009000000F08CF90021D82000F088F900210520A2
:1009100000F084F90021D92000F080F90021F120B5
:1009200000F07CF90021DA2000F078F90021122093
:1009300000F074F90021DB2000F070F90021302074
:1009400000F06CF900218D2000F068F900211420DE
:1009500000F064F90021AF2000F060F908BD00004C
:10096000000C014070B504460D4605F1B001C8B257
:10097000002100F053F9102141EA1410002100F089
:100980004DF904F00F00002100F048F970BD00009F
:100990002DE9F04707460E4690469946002500246B
:1009A000A8F12000C5B27F2F02DD0027B01CC6B21F
:1009B000B9F1100F24D131463846FFF7D3FF002498
:1009C00008E004EB0511194A505C012100F026F9FA
:1009D000601CC4B2082CF4DB701CC1B23846FFF7AF
:1009E000C1FF002409E004EB051108310F4A505CF7
:1009F000012100F013F9601CC4B2082CF3DB12E0F3
:100A000031463846FFF7AEFF00240AE005EB45010A
:100A1000074A02EB4101085D012100F0FFF8601C6C
:100A2000C4B2062CF2DBBDE8F0870000681E0008A7
:100A3000401C00082DE9F04180460E46154600276F
:100A400031464046FFF78EFF00240AE0124A02EBCF
:100A50008511085D012100F0E1F8781CC7B2601C27
:100A6000C4B2102CF2DB701CC1B24046FFF77AFF13
:100A700000240CE06900491C074A02EB4111085DA3
:100A8000012100F0CBF8781CC7B2601CC4B2102C56
:100A9000F0DBBDE8F0810000260000202DE9F041E8
:100AA00004460F461546984600260FE0AA5D4346C9
:100AB00039462046FFF76CFF04F10800C4B2782CD9
:100AC00002DD0024B81CC7B2701CC6B2A85D0028A5
:100AD000ECD1BDE8F0813EB504460D464FF47A7086
:100AE00094FBF0F00A2190FBF1F201FB1200303090
:100AF000C0B28DF80400642094FBF0F090FBF1F29A
:100B000001FB12003030C0B28DF805000A2094FBC2
:100B1000F0F090FBF1F201FB12003030C0B28DF822
:100B200006000A2094FBF0F100FB11403030C0B207
:100B30008DF8070000208DF80800102301AA042179
:100B40005020FFF7ABFF642095FBF0F00A2190FBEB
:100B5000F1F201FB12003030C0B28DF800000A2023
:100B600095FBF0F090FBF1F201FB12003030C0B2C7
:100B70008DF801000A2095FBF0F100FB1150303098
:100B8000C0B28DF8020000208DF8030010236A46E1
:100B900006216020FFF782FF3EBD000010B5002255
:100BA00011462020FFF746FF012200213020FFF7E9
:100BB00041FF022200214020FFF73CFF03220021D9
:100BC0005020FFF737FF102308A202210020FFF773
:100BD00065FF10230AA204210020FFF75FFF102306
:100BE0000AA206210020FFF759FF10BD2A2A2A2A4F
:100BF0004144432D544553542A2A2A2A0000000018
:100C00004144435F56414C55453A000053455256C6
:100C10004F5F414E474C453A0000000070B5054615
:100C20000C461CB1284600F0C7FB02E0284600F045
:100C3000ADFB70BD7047000001460020034A5068BC
:100C400020F440400843506070470000001002400C
:100C500029B1064AD2690243044BDA6104E0034A2F
:100C6000D2698243014BDA617047000000100240F4
:100C700029B1064A92690243044B9A6104E0034A8F
:100C800092698243014B9A61704700000010024054
:100C900029B1064AD2680243044BDA6004E0034AF1
:100CA000D2688243014BDA607047000000100240B6
:100CB00030B500210022002400232D4D6D6805F081
:100CC0000C0121B1042905D0082923D105E0294DC3
:100CD000056022E0274D05601FE0254D6D6805F495
:100CE0007012234D6D6805F48034022505EB9242A5
:100CF0001CB9214D554305600BE01D4D6D6805F491
:100D000000351DB11C4D5543056002E0194D55439A
:100D1000056002E0174D056000BF00BF144D6D680F
:100D200005F0F0010909154D6B5C0568DD40456073
:100D30000F4D6D6805F4E061090A104D6B5C456864
:100D4000DD4085600A4D6D6805F46051C90A0B4DA0
:100D50006B5C4568DD40C560054D6D6805F440413C
:100D6000890B074D6B5CC568B5FBF3F5056130BDBC
:100D70000010024000127A0000093D002605002004
:100D800036050020704700002DE9F05F824650468E
:100D900000F0F0FC80460B4A0B4B00F0FFFC0646CF
:100DA00000220A4B00F03EFC044600F009FC83469A
:100DB000584600F0DBFE84B22146054800F00EF9EB
:100DC000BDE8F09F1CC7711CC771BC3F00001440F8
:100DD0000008004010B500F001F810BD0CB500206F
:100DE000019000903348006840F480303149086039
:100DF00000BF3048006800F4003000900198401CAB
:100E00000190009818B90198B0F5A06FF1D1294868
:100E1000006800F4003010B10120009001E00020D3
:100E200000900098012843D12348006840F010004A
:100E3000214908600846006820F003000860084661
:100E4000006840F0020008601A484068194948608C
:100E50000846406848600846406840F48060486042
:100E60000846406820F47C1048600846406840F41A
:100E7000E81048600846006840F08070086000BFD5
:100E80000C48006800F000700028F9D0094840685C
:100E900020F00300074948600846406840F002001F
:100EA000486000BF0348406800F00C000828F9D1F2
:100EB0000CBD00000010024000200240042808D1B0
:100EC0004FF0E021096941F004014FF0E022116187
:100ED00007E04FF0E021096921F004014FF0E02222
:100EE000116170477047000010B51348006840F06A
:100EF00001001149086008464068104908400E4941
:100F00004860084600680E4908400B4908600846DA
:100F1000006820F4802008600846406820F4FE0045
:100F200048604FF41F008860FFF754FF4FF00060E7
:100F30000449086010BD0000001002400000FFF8E6
:100F4000FFFFF6FE08ED00E021B1028842F0010249
:100F5000028004E002884FF6FE731A400280704758
:100F600070B5002200230024058C4EF6FF76354034
:100F70000584038C8488828B48F6FF752A404FF6DF
:100F8000FF452A400D884FF6FF7606EA05252A43DD
:100F90004DF6FF752B400D8906EA05352B434D882C
:100FA00006EA05352B430B4DA84202D00A4DA84254
:100FB00008D14BF6FF752C408D894FF6FF7606EA77
:100FC00085152C4384808283CD88A0F8405003840B
:100FD00070BD0000002C014000340140A0F840101A
:100FE00070470000002202881D4B98420ED01D4B16
:100FF00098420BD0B0F1804F08D01B4B984205D0DF
:101000001A4B984202D01A4B984204D14FF68F7374
:101010001A404B881A43174B984207D0164B9842F8
:1010200004D04FF6FF431A40CB881A4302808B88C6
:1010300083850B8803850A4B98420BD0094B984255
:1010400008D00E4B984205D00D4B984202D00D4B64
:10105000984201D10B7A03860123838270470000F6
:10106000002C014000340140000400400008004012
:10107000000C0040001000400014004000400140FF
:10108000004401400048014030B589B004460D4697
:1010900001210420FFF7DCFD01210920FFF7E8FD15
:1010A0004FF40070ADF8200018208DF823000320C5
:1010B0008DF8220008A91448FFF749FAC720ADF8B7
:1010C000180041F61F40ADF814000020ADF81A00DA
:1010D000ADF8160005A90D48FFF784FF7020ADF8A4
:1010E00004000120ADF806000220ADF80C0000203D
:1010F000ADF80A0001A90548FFF732FF01210348B6
:10110000FFF722FF09B030BD000C0140000800408D
:1011100010B540F225511D4800F04AF810B31B48A5
:1011200000F002F9C4B21A48008800F40040C8B9BF
:101130001748008800F4804060B10A2C03D00020DA
:101140001349088020E01248008840F4004010490C
:10115000088019E00D2C06D10D48008840F480402D
:101160000B49088010E00A480088C0F30D000949C7
:101170000C5407480088401C054908800846008830
:10118000C72801DD0020088010BD000000380140A4
:10119000240000203C05002021B1828942F4005245
:1011A000828104E082894DF6FF731A408281704784
:1011B00070B50246002400230025002040F66A1680
:1011C000B14200D100BFC1F3421501F01F03012657
:1011D00006FA03F3012D02D19689334006E0022D71
:1011E00002D1168A334001E0968A33400C12012660
:1011F00006FA04F41688344013B10CB1012000E063
:10120000002070BDF0B50346002400260025002014
:1012100040F66A17B94200D100BF1846C1F3421424
:1012200001F01F06012707FA06F5012C01D10C3049
:1012300004E0022C01D1103000E014301AB107682C
:101240002F43076002E00768AF430760F0BD00006E
:101250002DE9F04786B005460E460024A24600BFA1
:10126000A1460027B08900B100BF2F462C8A4CF65A
:10127000FF700440F08804432C82AC894EF6F310D2
:101280000440B08831890843718908430443AC8124
:10129000AC8A4FF6FF400440B0890443AC8201A8F9
:1012A000FFF706FD1F48874202D1DDF810A001E0DC
:1012B000DDF80CA0A88900F4004040B10AEBCA0098
:1012C00000EB0A1031684900B0FBF1F807E00AEBC7
:1012D000CA0000EB0A1031688900B0FBF1F8642005
:1012E000B8FBF0F004012009642101FB1089A889F2
:1012F00000F4004040B1322000EBC900B0FBF1F037
:1013000000F00700044308E0322000EB09106421DC
:10131000B0FBF1F000F00F0004432C8106B0BDE8F3
:10132000F08700000038014001468888C0F30800BB
:10133000704700BFFEE700002DE9F04105462C464E
:1013400040211148FFF78EF9002619E0274607F0E3
:101350008007802F04D180210B48FFF785F903E037
:1013600080210948FFF77EF96006040E40210648F7
:10137000FFF77AF940210448FFF774F9701CC6B2F0
:10138000082EE3DBBDE8F081000C014010B50446F7
:10139000FFF7A0F97820FFF7CFFFFFF7BFF9002094
:1013A000FFF7CAFFFFF7BAF92046FFF7C5FFFFF7BF
:1013B000B5F9FFF7A3F910BD10B50446FFF78AF998
:1013C0007820FFF7B9FFFFF7A9F94020FFF7B4FF36
:1013D000FFF7A4F92046FFF7AFFFFFF79FF9FFF7EC
:1013E0008DF910BD00BF704710B56FF00400FFF716
:1013F00065FD0A4800680A49B0FBF1F00949087028
:101400000846007800EB4001C1EBC0104FF6FF71B9
:1014100001EAC0000449088010BD00000800002057
:1014200000127A001C0000201E0000200146114A14
:1014300012884A434FF0E0235A6100229A611A460B
:10144000126942F001021A6100BF4FF0E0221069F8
:1014500000F001021AB100F48032002AF5D04FF0FA
:10146000E022126922F001024FF0E0231A6100220B
:101470009A6170471E000020FFF736FDFFF7B4FFAA
:101480004FF4165000F04CF8FFF754F9FFF70AF844
:101490004FF4E151C820FFF7F7FDFFF7D9F9FFF747
:1014A000B7F9FFF77BFB31E00A210520FFF7F8F8D9
:1014B00017490880AF201749088008460088FFF7C1
:1014C00063FC1448018812480088FFF704FB1248A7
:1014D00001880088401C104A10804FF47A7091FBFC
:1014E000F0F010B100200D4908600B480188008819
:1014F000401C094A10804FF4FA6091FBF0F028B1CB
:10150000012006490860002011460880CCE7000051
:1015100002000020040000200000002094812142ED
:1015200010B586B00446012144F20400FFF7A0FB89
:101530004FF40070ADF8140003208DF81600182049
:101540008DF8170005A91C48FFF701F84FF48060DB
:10155000ADF8140004208DF8170005A91648FEF711
:10156000F6FF25208DF8000000208DF801008DF891
:10157000020001208DF803006846FFF711F901947D
:101580000020ADF80800ADF80A00ADF80C00ADF889
:1015900010000C20ADF80E0001A90848FFF758FE16
:1015A000012240F225510548FFF72CFE0121034896
:1015B000FFF7F2FD06B010BD000801400038014001
:1015C00021F00042A2F16052B2F5801F01F0004309
:1015D00028BFD2F17F6C0BD95FEA001C43EAC2023C
:1015E00042EB507018BF704728BF20F001007047D1
:1015F000B2F5801FBCBF184670474FEA410C1CF57E
:10160000001F02D2084600F016BB70B500F070F95A
:1016100000000089FFF7F6BF4FF00040A0F5800002
:101620007047000010B591EA030F48BF83F00043F4
:1016300000F1BA81841A71EB030C05D2121943EB45
:101640000C03001B61EB0C01DFF824E14FEA11549D
:10165000A4EB135C1EEA430F18BF9EEA445F73D0ED
:1016600023EA0E03DCF1200E21EA045143F4801337
:1016700032D322FA0CFE10EB0E0023FA0CFE41EBE3
:101680000E01CCF1200E03FA0EFE10EB0E0051F10C
:101690000001B1F5801FCCF1200E32D201EB0451D4
:1016A00012FA0EF2BDE8104058BF7047401C38BF18
:1016B0005FEA420218BF7047002814BF20F0010003
:1016C00041F100014FEA410313F5001F38BF704795
:1016D000A1F1C04100F05AB9012A43EB0302ACF179
:1016E000200CDCF11F0E32BF4FF0000E23FA0CF37A
:1016F00010EB030041EB0451B4EB115FD0D0A1EB30
:10170000045101F5801149085FEA300001EB0451F2
:101710000ED350F1000038BF12FA0EFE08D1BDE81A
:101720001040C9E7401C38BF5FEA4202CAD1C3E794
:10173000BDE810404FEA410313F5001F38BF704762
:10174000A1F1C04100F022B99EEA445F08D011EA3D
:101750005E0FBDE8104004BF01F00041002070475B
:10176000BDE8104070B500F0C3F800BF64FBBE3E9A
:101770000000E0FFB0FA80F310FA03F10AD0C3F1E1
:101780001D0303F580634FEA41504FEA035202EB19
:10179000D12170474FF0000070470000DFF848C1CA
:1017A00070B51CEA111E1EBF1CEA13159EEA0C0F31
:1017B00095EA0C0F00F06F8081EA030423EA4C13D2
:1017C0004EEAD47E21EA4C1141F4801143F4801397
:1017D000AE44A1FB024CA0FB0365AEF17F7E36193F
:1017E00055EB0C05A1FB034C4CF10003A0FB021CC4
:1017F00016EB0C06654153F10003094218BF46F091
:10180000010613F4007F0BD14FEA03314FEA053094
:10181000340341EA155140EA16506FF003020AE022
:101820004FEAC3214FEAC520F40241EA555140EA8C
:1018300056506FF0020202EB2E4201EB025585EA90
:10184000CE710AD05FEA440C18BF24F0004450F176
:10185000000041F1000120EAD47040F2FE7C6245B4
:1018600000D270BDA84214BF4FF080444FF04044F6
:10187000002E08BF0024BEF1806FA8BFA1F1C041B7
:10188000BDE8704080F282804FF0000001F1C0415D
:1018900001F0004170479EEA0C0F0CEA131518BFC7
:1018A00095EA0C0F06D04FF0000081EA030E0EF00F
:1018B000004170BD00F01CF88900013E00F007B83F
:1018C00000F009B84FEA430C5FEA5C5C08D081EA9B
:1018D000030100F05BB84FEA410C5FEA5C5CF6D1B3
:1018E0004FF00000014970470000FF070000F87F3B
:1018F0000EF1020E2EF0030E5EF8046B364205D494
:10190000012A43EB030515F5001F12D8012841EB0E
:10191000010C1CF5001F0CD80ED14FEAD17C15F537
:10192000001F0CEB4C0C0CF1020C08BF4CEBD37CF1
:1019300004E04FF0080C01E04FEAD37C0CEB4C05BF
:1019400026FA05F606F00706B6F1040C06D20EEBF1
:10195000860CBDE870404CF0010C6047DFE80CF0ED
:10196000090B02024FF000414FF00000A1F50021E9
:1019700070BD19461046012851EB010418BFD4F57B
:10198000001484BF002001F0004170BD0808A0F5DC
:1019900000114FEA3101704710B591EA030F48BFBB
:1019A00083F000433FF546AE841A71EB030C07D277
:1019B00012198CF0004C43EB0C03001B61EB0C0183
:1019C000DFF8A4E14FEA1154A4EB135C1EEA430FC5
:1019D00018BF9EEA445F00F0B08023EA6E035242D3
:1019E00021EA0451C3EB6E0338BF5B1EDCF1200E0D
:1019F00025D322FA0CFE10EB0E0043FA0CFE41EB4D
:101A00000E01CCF1200E03FA0EFE10EB0E0051F188
:101A10000001CCF1200E29D412FA0EF201EB045190
:101A2000BDE8104058BF7047401C1CBFB2F1004FCA
:101A3000704700280CBF491C20F00100704712EBD2
:101A4000020E43EB030218BF4FF0010E4EEA4202B2
:101A5000ACF1200CDCF11E0E54D943FA0CFE10EB55
:101A60000E0051F1FF31CCF11E0ED5D50EF1010E55
:101A700012FA0EFE404141EB010101EB445C5FEACA
:101A80005C5C10D910EBDE7001EB045138BFBEF185
:101A9000004FBDE8104018BF704700280CBF491C1C
:101AA00020F00100704730D24FEAD42C11F500111C
:101AB00024F400641BD0B1FA81F20B3AA41AA41EDC
:101AC000D2F12003914030FA03F31943904001EB27
:101AD000CC71002C01EB0451BDE81040A8BF704749
:101AE00001F1C0414FF0000001F000417047B0FA31
:101AF00080F310FA03F100D110BDE41A173C480539
:101B0000C90AE4E701EB045110BD491001EB04518F
:101B1000BDE810404FEA300002E04FF0000170478E
:101B20004A0008BF0042F8D0B2F5001F28BF704736
:101B300001F000414FF0000070479EEA445F07D07B
:101B400011EA5E0FBDE8104004BF0021002070477D
:101B5000BDE8104070B5FFF7CBFE00BF40DFF63E9A
:101B600083F00041104670470000E0FFC10DD1F145
:101B70009E0206DB4FEA002343F0004323FA02F003
:101B80007047004207D54FEA4001B1F1FE4F02D243
:101B90004FF00000704710B500F007F8499224801C
:101BA000002070476FEA200070470EF1020E2EF001
:101BB000030E5EF8044B244204D44FEA4102B2F112
:101BC0007F4F11D84FEA4003B3F17F4F0CD80ED1AD
:101BD0004FEAD07CB2F17F4F0CEB4C0C0CF1020CB5
:101BE00008BF4CEBD17C04E04FF0080C01E04FEA59
:101BF000D17C0CEB4C0324FA03F404F00704B4F199
:101C0000040C06D20EEB840CBDE810404CF0010C25
:101C10006047DFE80CF0070802024FF00040A0F533
:101C2000800010BD0846420018BFD2F1807288BF04
:101C300000F0004010BDFF2141EAD050C0057047C0
:101C40000000000000000000002F0000000007005E
:101C5000070000147F147F1400242A7F2A120062D8
:101C60006408132300364955225000000503000084
:101C700000001C224100000041221C000014083E0C
:101C800008140008083E0808000000A060000008D2
:101C90000808080800006060000000201008040226
:101CA000003E5149453E0000427F400000426151E4
:101CB0004946002141454B31001814127F1000277E
:101CC00045454539003C4A49493000017109050341
:101CD00000364949493600064949291E0000363672
:101CE00000000000563600000008142241000014D5
:101CF00014141414000041221408000201510906B2
:101D000000324959513E007C1211127C007F494932
:101D10004936003E41414122007F4141221C007F63
:101D200049494941007F09090901003E4149497A71
:101D3000007F0808087F0000417F410000204041EB
:101D40003F01007F08142241007F40404040007F57
:101D5000020C027F007F0408107F003E4141413E9B
:101D6000007F09090906003E4151215E007F0919E3
:101D700029460046494949310001017F0101003FE0
:101D80004040403F001F2040201F003F4038403F60
:101D900000631408146300070870080700615149C4
:101DA000454300007F41410000552A552A55000057
:101DB00041417F00000402010204004040404040D5
:101DC000000001020400002054545478007F48446D
:101DD000443800384444442000384444487F0038A4
:101DE0005454541800087E0901020018A4A4A47CCD
:101DF000007F080404780000447D40000040808497
:101E00007D00007F102844000000417F4000007CDE
:101E100004180478007C08040478003844444438EA
:101E200000FC242424180018242418FC007C080436
:101E3000040800485454542000043F444020003C0F
:101E40004040207C001C2040201C003C4030403C96
:101E5000004428102844001CA0A0A07C0044645426
:101E60004C4414141414141400000000000000006A
:101E70000000000000000000000000F8000000006A
:101E8000000000333000000000100C06100C0600AB
:101E9000000000000000000040C07840C078400012
:101EA000043F04043F040400007088FC0830000074
:101EB000001820FF211E0000F008F000E0180000CC
:101EC00000211C031E211E0000F008887000000085
:101ED0001E2123241927211010160E0000000000D7
:101EE0000000000000000000000000E018040200F4
:101EF000000000071820400000020418E000000065
:101F00000040201807000000404080F08040400062
:101F10000202010F01020200000000F000000000B8
:101F20000101011F0101010000000000000000008C
:101F300080B0700000000000000000000000000001
:101F4000000101010101010100000000000000008A
:101F50000030300000000000000000008060180425
:101F6000006018060100000000E010080810E00002
:101F7000000F102020100F00001010F800000000CB
:101F80000020203F20200000007008080888700012
:101F90000030282422213000003008888848300092
:101FA0000018202020110E000000C02010F80000B2
:101FB00000070424243F240000F80888880808004B
:101FC0000019212020110E0000E010888818000060
:101FD000000F112020110E0000380808C838080032
:101FE0000000003F000000000070880808887000B2
:101FF000001C222121221C0000E010080810E00033
:102000000000312222110F00000000C0C0000000BB
:1020100000000030300000000000008000000000E0
:1020200000008060000000000000804020100800D8
:1020300000010204081020004040404040404000A1
:10204000040404040404040000081020408000007C
:102050000020100804020100007048080808F00081
:102060000000003036010000C030C828E810E00051
:102070000718272423140B000000C038E0000000DC
:10208000203C23020227382008F888888870000046
:10209000203F202020110E00C0300808080838001A
:1020A000071820202010080008F808080810E00091
:1020B000203F202020100F0008F88888E808100032
:1020C000203F20202320180008F88888E808100006
:1020D000203F200003000000C0300808083800003E
:1020E00007182020221E020008F808000008F8083F
:1020F000203F210101213F20000808F808080000C6
:102100000020203F2020000000000808F8080800F8
:10211000C08080807F00000008F888C02818080070
:10212000203F20012638200008F8080000000000A9
:10213000203F20202020300008F8F800F8F80800A0
:10214000203F003F003F200008F830C00008F8089A
:10215000203F200007183F00E01008080810E000AA
:102160000F10202020100F0008F808080808F000C1
:10217000203F210101010000E01008080810E000E4
:102180000F18242438504F0008F888888888700079
:10219000203F2000030C3020007088080808380019
:1021A0000038202121221C00180808F8080818000F
:1021B0000000203F2000000008F808000008F80890
:1021C000001F202020201F000878880000C8380841
:1021D000000007380E010000F80800F80008F800B9
:1021E000033C0700073C0300081868808068180853
:1021F00020302C03032C30200838C800C8380800D1
:102200000000203F2000000010080808C83808001F
:102210002038262120201800000000FE02020200C3
:102220000000007F40404000000C30C00000000073
:10223000000000010638C00000020202FE0000009B
:10224000004040407F000000000004020202040041
:10225000000000000000000000000000000000007E
:102260008080808080808080000202040000000066
:10227000000000000000000000008080808000005E
:102280000019242222223F2008F80080800000004C
:10229000003F112020110E0000000080808000000F
:1022A000000E112020201100000000808088F8001E
:1022B000000E112020103F20000080808080000050
:1022C000001F222222221300008080F088888818B4
:1022D0000020203F202000000000808080808000BF
:1022E000006B94949493600008F800808080000054
:1022F000203F210000203F2000809898000000002F
:102300000020203F2020000000000080989800005E
:1023100000C08080807F000008F80000808080007E
:10232000203F24022D302000000808F800000000A3
:102330000020203F2020000080808080808080005E
:10234000203F20003F20003F8080008080800000F0
:10235000203F210000203F2000008080808000007E
:10236000001F202020201F008080008080000000AF
:1023700080FFA12020110E000000008080808000DE
:10238000000E112020A0FF808080800080808000CF
:1023900020203F21200001000000808080808000FC
:1023A0000033242424241900008080E08080000071
:1023B0000000001F202000008080000000808000BE
:1023C000001F202020103F2080808000008080801F
:1023D00000010E30080601008080008000808080AF
:1023E0000F300C030C300F000080800080808000D4
:1023F0000020312E0E3120008080800000808080FF
:1024000080818E70180601000080808080808000AE
:102410000021302C2221300000000000807C0202CC
:1024200000000000003F404000000000FF000000EE
:1024300000000000FF0000000002027C800000009D
:102440000040403F000000000006010102020404B9
:1024500000000000000000007824000800000020B8
:102460003C0500006C010008E02500083C05002048
:102470002C070000C80100089184A24A04C0090189
:1024800002030406070809000B1720E020A0FCA4A3
:10249000A010F070000C160305041F222222212038
:1024A0002038000B14888888A8E4948C404040139E
:1024B000010105192040403F368040C064080414E3
:1024C000FC8080280E0804027F01121010110F10EA
:1024D00008082801111AF8187E4888E83404E7E152
:1024E000000C133F2028242221131E14101016065E
:1024F0000AFE0AC612E012F062F84EFE7DBBC7EF7C
:1025000001053EC7BB7DFE300D080CFEFE0C082009
:1025100060FEFE60208F7848FE82BABA0309135E1F
:10252000AA0101017E6CFEFF0301CBFFFF0F39BB47
:10253000ECC0C0C0271918F92701392975990B6C0F
:10254000FFFF0C01491A0C22E1E1E12701396C0F70
:102550001F1801FB1F0F0F092E270136168C422270
:10256000120C26FC020202FC3304FE16205844FE24
:10257000402A10015912491E4912A92A0123300A82
:1025800024A42E24E4242EA424C00AF84A4C48F89B
:10259000484C4AF82A01013907490D5915991F99E4
:1025A00018091412712BC020A1AB20C00A11300AE7
:1025B000120A07027F02070A121E0B0A0A0A7F0488
:1025C00002560B980A1F2040404050205F800A3975
:1025D000B12C0203040420090607080902040608B6
:0400000508000131BD
:00000001FF
